:100000000C945C000C9479000C9479000C947900A9
:100010000C9479000C9479000C9479000C9479007C
:100020000C9479000C9479000C9479000C9479006C
:100030000C9479000C9479000C9479000C9479005C
:100040000C9446010C9479000C9479000C9479007E
:100050000C9479000C9479000C9479000C9479003C
:100060000C9479000C947900000000080002010053
:100070000003040700000000000000000000000072
:10008000250028002B0000000000240027002A0083
:10009000040404040404040402020202020203032E
:1000A0000303030301020408102040800102040836
:1000B000102001020408102011241FBECFEFD8E049
:1000C000DEBFCDBF11E0A0E0B1E0EAECF5E002C098
:1000D00005900D92A831B107D9F721E0A8E1B1E070
:1000E00001C01D92A132B207E1F70E9490010C9469
:1000F000E3020C94000090E0FC01EC55FF4F2491CA
:10010000FC01E057FF4F8491882399F090E0880F1D
:10011000991FFC01EA57FF4FA591B491FC01E458E7
:10012000FF4F859194918FB7F894EC91E22BEC936B
:100130008FBF089590E0FC01E859FF4F2491FC0126
:10014000EC55FF4F3491FC01E057FF4FE491EE2353
:1001500009F43CC0222339F1233091F038F42130E6
:10016000A9F0223001F584B58F7D12C0273091F0BF
:100170002830A1F02430B9F4809180008F7D03C035
:10018000809180008F77809380000DC084B58F7739
:1001900084BD09C08091B0008F7703C08091B0000A
:1001A0008F7D8093B000F0E0EE0FFF1FE458FF4F0B
:1001B000A591B4919FB7F894611104C08C913095CA
:1001C000382302C0EC913E2B3C939FBF08953FB76C
:1001D000F89480911D0190911E01A0911F01B09192
:1001E000200126B5A89B05C02F3F19F00196A11D3F
:1001F000B11D3FBFBA2FA92F982F8827820F911DBD
:10020000A11DB11DBC01CD0142E0660F771F881F03
:10021000991F4A95D1F708958F929F92AF92BF92FE
:10022000CF92DF92EF92FF926B017C010E94E70078
:100230004B015C01C114D104E104F104F1F00E940E
:10024000E700DC01CB0188199909AA09BB09883E9E
:100250009340A105B10570F321E0C21AD108E1086D
:10026000F10888EE880E83E0981EA11CB11CC11411
:10027000D104E104F10419F7DDCFFF90EF90DF9096
:10028000CF90BF90AF909F908F9008951F920F9244
:100290000FB60F9211242F933F938F939F93AF9399
:1002A000BF938091190190911A01A0911B01B09107
:1002B0001C013091180123E0230F2D3720F4019603
:1002C000A11DB11D05C026E8230F0296A11DB11D79
:1002D000209318018093190190931A01A0931B0198
:1002E000B0931C0180911D0190911E01A0911F01EE
:1002F000B09120010196A11DB11D80931D01909325
:100300001E01A0931F01B0932001BF91AF919F9157
:100310008F913F912F910F900FBE0F901F901895C6
:10032000789484B5826084BD84B5816084BD85B5D0
:10033000826085BD85B5816085BD80916E008160DC
:1003400080936E0010928100809181008260809382
:100350008100809181008160809381008091800084
:100360008160809380008091B10084608093B100AF
:100370008091B00081608093B00080917A008460A9
:1003800080937A0080917A00826080937A008091D5
:100390007A00816080937A0080917A0080688093EF
:1003A0007A001092C1008DE00E947B008AE00E94DA
:1003B0007B0087E00E947B0084E00E947B008CE051
:1003C0000E947B0089E00E947B0086E00E947B0007
:1003D00083E00E947B008BE00E947B0088E00E940B
:1003E0007B0085E00E947B0082E00E947B00C2E1EE
:1003F000D1E080E0C82E81E0D82E9CE0E92E91E08B
:10040000F92E06E011E08881229660E00E949A00B1
:10041000F6018081F2E0CF0ED11C60E00E949A00CC
:10042000F7018081F2E0EF0EF11C60E00E949A007B
:10043000F80180810E5F1F4F60E00E949A00F1E09A
:10044000C831DF0701F7C0E0D0E061E08BE00E9437
:100450009A0061E087E00E949A0061E084E00E94D7
:100460009A0061E08AE00E949A0068E873E180E007
:1004700090E00E940C0160E08BE00E949A0060E036
:1004800087E00E949A0061E08CE00E949A0061E09F
:1004900086E00E949A0060ED77E080E090E00E94A4
:1004A0000C0160E08CE00E949A0060E086E00E940F
:1004B0009A0061E08DE00E949A0061E085E00E9470
:1004C0009A0068E873E180E090E00E940C0160E02F
:1004D00085E00E949A0060E084E00E949A0061E05A
:1004E00086E00E949A0061E083E00E949A0060ED3D
:1004F00077E080E090E00E940C0160E086E00E94DE
:100500009A0060E083E00E949A0061E087E00E9428
:100510009A0061E082E00E949A0068E873E180E05E
:1005200090E00E940C0160E082E00E949A0060E08E
:100530008AE00E949A0061E083E00E949A0061E0F4
:1005400089E00E949A0060ED77E080E090E00E94F0
:100550000C0160E083E00E949A0060E089E00E9464
:100560009A0061E084E00E949A0061E088E00E94C5
:100570009A0068E873E180E090E00E940C0160E07E
:100580008DE00E949A0060E088E00E949A0061E09D
:100590008CE00E949A0061E089E00E949A0060ED80
:1005A00077E080E090E00E940C0160E089E00E942A
:1005B0009A0060E08CE00E949A00209709F445CFF1
:0A05C0000E94000042CFF894FFCF24
:1005CA000A000900080004000300020007000600F0
:0805DA0005000D000C000B00F0
:107E0000112484B714BE81FFF0D085E080938100F7
:107E100082E08093C00088E18093C10086E0809377
:107E2000C20080E18093C4008EE0C9D0259A86E02C
:107E300020E33CEF91E0309385002093840096BBD3
:107E4000B09BFECF1D9AA8958150A9F7CC24DD24C4
:107E500088248394B5E0AB2EA1E19A2EF3E0BF2EE7
:107E6000A2D0813461F49FD0082FAFD0023811F036
:107E7000013811F484E001C083E08DD089C08234E0
:107E800011F484E103C0853419F485E0A6D080C0E4
:107E9000853579F488D0E82EFF2485D0082F10E0AE
:107EA000102F00270E291F29000F111F8ED06801E7
:107EB0006FC0863521F484E090D080E0DECF843638
:107EC00009F040C070D06FD0082F6DD080E0C81688
:107ED00080E7D80618F4F601B7BEE895C0E0D1E017
:107EE00062D089930C17E1F7F0E0CF16F0E7DF06D8
:107EF00018F0F601B7BEE89568D007B600FCFDCFD4
:107F0000A601A0E0B1E02C9130E011968C91119780
:107F100090E0982F8827822B932B1296FA010C0160
:107F200087BEE89511244E5F5F4FF1E0A038BF0790
:107F300051F7F601A7BEE89507B600FCFDCF97BE46
:107F4000E89526C08437B1F42ED02DD0F82E2BD052
:107F50003CD0F601EF2C8F010F5F1F4F84911BD097
:107F6000EA94F801C1F70894C11CD11CFA94CF0C13
:107F7000D11C0EC0853739F428D08EE10CD085E9AC
:107F80000AD08FE07ACF813511F488E018D01DD067
:107F900080E101D065CF982F8091C00085FFFCCF94
:107FA0009093C60008958091C00087FFFCCF809118
:107FB000C00084FD01C0A8958091C6000895E0E648
:107FC000F0E098E1908380830895EDDF803219F02E
:107FD00088E0F5DFFFCF84E1DECF1F93182FE3DFCA
:107FE0001150E9F7F2DF1F91089580E0E8DFEE27F6
:047FF000FF270994CA
:027FFE00040479
:0400000300007E007B
:00000001FF
